:100000000C9474010C9491010C9491010C94910145
:100010000C9491010C9491010C9491010C94910118
:100020000C9491010C9491010C9491010C94910108
:100030000C9491010C9491010C9491010C949101F8
:100040000C9491010C9491010C9491010C949101E8
:100050000C9491010C94D5060C9491010C9491018F
:100060000C9491010C949101808183848687898A04
:100070008C8E8F9192949597989A9B9D9EA0A2A307
:10008000A5A6A7A9AAACADAFB0B2B3B5B6B7B9BA79
:10009000BCBDBEC0C1C2C4C5C6C8C9CACBCDCECF07
:1000A000D0D2D3D4D5D6D7D9DADBDCDDDEDFE0E1C0
:1000B000E2E3E4E5E6E7E8E9EAEAEBECEDEEEEEFB1
:1000C000F0F1F1F2F3F3F4F5F5F6F6F7F8F8F9F9E3
:1000D000FAFAFAFBFBFCFCFCFDFDFDFDFEFEFEFE5C
:1000E000FEFFFFFFFFFFFFFF0000891112239B327D
:1000F0002446AD573665BF74488CC19D5AAFD3BEF8
:100100006CCAE5DB7EE9F7F88110080193331A2207
:10011000A5562C47B7753E64C99C408DDBBF52AED7
:10012000EDDA64CBFFF976E802218B3010029913E7
:100130002667AF763444BD554AADC3BC588ED19FB7
:100140006EEBE7FA7CC8F5D983310A2091121803C7
:10015000A7772E66B5543C45CBBD42ACD99E508F97
:10016000EFFB66EAFDD874C904428D5316619F7097
:100170002004A9153227BB364CCEC5DF5EEDD7FC77
:100180006888E1997AABF3BA85520C4397711E6087
:10019000A1142805B3373A26CDDE44CFDFFD56EC57
:1001A000E9986089FBBB72AA06638F7214409D5167
:1001B0002225AB343006B9174EEFC7FE5CCCD5DD37
:1001C0006AA9E3B8788AF19B87730E6295501C4147
:1001D000A3352A24B1163807CFFF46EEDDDC54CD17
:1001E000EBB962A8F99A708B088481951AA793B627
:1001F0002CC2A5D33EE1B7F04008C919522BDB3A17
:10020000644EED5F766DFF7C899400859BB712A6E6
:10021000ADD224C3BFF136E0C1184809D33B5A2AF6
:10022000E55E6C4FF77D7E6C0AA583B418869197C6
:100230002EE3A7F23CC0B5D14229CB38500AD91BD6
:10024000666FEF7E744CFD5D8BB502A499961087A6
:10025000AFF326E2BDD034C1C3394A28D11A580BB6
:10026000E77F6E6EF55C7C4D0CC685D71EE597F476
:100270002880A1913AA3B3B2444ACD5B5669DF7896
:10028000600CE91D722FFB3E8DD604C79FF516E466
:10029000A9902081BBB332A2C55A4C4BD7795E6876
:1002A000E11C680DF33F7A2E0EE787F61CC495D546
:1002B0002AA1A3B03882B193466BCF7A5448DD5956
:1002C000622DEB3C700EF91F8FF706E69DD414C526
:1002D000ABB122A0B9923083C77B4E6AD5585C4936
:1002E000E33D6A2CF11E780F11241FBECFEFD8E03A
:1002F000DEBFCDBF11E0A0E0B1E0E4EAF9E202C068
:1003000005900D92A231B107D9F718E0A2E1B1E052
:1003100001C01D92A039B107E1F70E9464130C944B
:10032000D0140C9400000C945A12789488E997E049
:100330000E9411038FEF9FEF9093750880937408CC
:10034000909377088093760823E931E048E957E0F5
:1003500064E778E08AE394E00E94C60786E698E0C6
:100360000E94D10186E698E090938D0880938C08D6
:1003700090938B0880938A08AC0168E977E08AE360
:1003800094E00C944D129091C00095FFFCCF8093A7
:10039000C60008958091C00087FFFCCF8091C60001
:1003A0000895CF93DF93CDB7DEB72E970FB6F894AD
:1003B000DEBF0FBECDBFDC019EE0FD01892F119293
:1003C0008A95E9F71092C50087E68093C400E0ECB7
:1003D000F0E080818D7F808386E08093C20088E199
:1003E0008093C1009E012F5F3F4FF90111929A95B2
:1003F000E9F783E08C8383EC91E09A8789878AEC24
:1004000091E09C878B878EE0F90101900D928A958F
:10041000E1F72E960FB6F894DEBF0FBECDBFDF9189
:10042000CF910895811106C08091C000881F882750
:10043000881F089580E008958091C00087FF03C061
:100440008091C60008958FEF0895E0917808F091AB
:1004500079084FB7F894EB58FF4F24813581868196
:1004600097814FBF28173907E1F0E0917808F091A4
:1004700079082FB7F894EB58FF4FA481B58182819A
:100480009381A817B90719F48081918104C0A481D0
:10049000B581CD010196958384838C912FBF90E027
:1004A00008958FEF9FEF08950F931F93CF93DF93DE
:1004B000182FC0917808D0917908FE01E959FF4FB3
:1004C0008081811124C080E490E09E8F8D8F1C8EEE
:1004D0001B8E1A8E01E00083299A20910901309128
:1004E0000A0140910B0150910C01A0EBB4E00E9475
:1004F00077136056704F8F4F9F4F20E43FE140E0ED
:1005000050E00E94AA133B8B2A8B009313010FB774
:10051000F894209105013091060140910701509116
:100520000801A0EBB4E00E9477136056704F8F4F24
:100530009F4F20E43FE140E050E00E94AA133D8B32
:100540002C8B0FBFE0917808F09179085FB7F89491
:1005500023A134A1878D90A12817390739F425A14B
:1005600036A181A192A12817390761F025A136A1F2
:1005700083A194A1019741E02817390709F040E0D1
:10058000842F01C081E05FBF80FDDCCFE09178085F
:10059000F09179084FB7F894A5A1B6A11C9325A1B5
:1005A00036A181A192A12817390719F4878D90A14E
:1005B00003C085A196A1019696A385A34FBFDF91A5
:1005C000CF911F910F9108951092120108951092EA
:1005D00012011092800089E18093810081E896E009
:1005E000909387008093860080911201882321F0E8
:1005F00080E480937C0002C010927C003898409880
:1006000080917E00816080937E0087E080937B00F4
:100610008CEE80937A008AB1886F8AB9219A229AE7
:1006200008950F931F93CF93DF93CDB7DEB72E9727
:100630000FB6F894DEBF0FBECDBF8C018AECD80197
:100640001D928A95E9F7109379080093780880E461
:1006500090E0F801968F858FC80180599F4FE85927
:10066000FF4F918380839783868395838483C8011A
:100670008C589F4F93838283C80183589F4FD80122
:10068000AB58BF4F11969C938E9317969C938E9365
:10069000169715969C938E931497C80184549F4F78
:1006A00013969C938E931297C8018796D8019096C3
:1006B0009C938E935F9796969C938E939597949622
:1006C0009C938E939397C8018A599F4F92969C93BF
:1006D0008E93919784E090E0A681B7811C92468129
:1006E0005781228133814217530719F420813181C8
:1006F00004C0268137812F5F3F4F378326830197C0
:10070000009751F70E94E7022EE0FE013196DF01CB
:10071000822F1D928A95E9F783E08C8384E592E02D
:100720009A87898785E292E09C878B87D801019020
:100730000D922A95E1F72E960FB6F894DEBF0FBE04
:10074000CDBFDF91CF911F910F9108950F931F930C
:10075000CF93DF938B01E0917808F091790825A180
:1007600036A134A323A3EC01080F191FC017D1072A
:1007700021F089910E945402F9CFDF91CF911F910E
:100780000F910895DC0156968C9156978111E9C01E
:1007900058968C91589781119FC093962D913C91BA
:1007A000949795968D919C9196972817390739F4CF
:1007B00054968D919C915597892B09F45CC059965C
:1007C0008C915997811103C05A961C925A9781E0D7
:1007D00059968C93599752968D919C915397009767
:1007E00089F593962D913C91949795968D919C9136
:1007F00096972817390751F454968D919C915597E7
:10080000019755969C938E93549721C09396ED91A2
:10081000FC91949791968D919C919297E817F90786
:1008200029F45F968D919C91909706C09396ED91D7
:10083000FC919497CF01019694969C938E939397F5
:10084000808106C0019753969C938E9352978EE7B2
:1008500057968C93579757968C9157978B3191F564
:1008600093962D913C91949795968D919C91969706
:100870002817390741F410921301A959BF4F1C9250
:10088000299880E008959396ED91FC919497919624
:100890008D919C919297E817F90729F45F968D91B5
:1008A0009C91909706C09396ED91FC919497CF01FF
:1008B000019694969C938E939397808157968C93F0
:1008C000579706C08E57823018F459961C92599744
:1008D00081E058968C93589759962C9159975D962C
:1008E0008D919C915E972223A9F05A962C915A974C
:1008F000253080F05A961C925A978034910519F44D
:1009000085E790E002C080E490E05E969C938E9331
:100910005D9723C058963C91589757962C915797BE
:10092000232341F05A968C915A978F5F5A968C9355
:100930005A970FC05A961C925A978034910519F411
:1009400085E790E002C080E490E05E969C938E93F1
:100950005D97330F58963C93589788E056968C9342
:1009600056975D96ED91FC915E975B968D919C916B
:100970005C97E80FF91F9F0131705C963C932E93B2
:100980005B9756968C915697815056968C93FF277D
:10099000E038F10530F08FEF90E0AC014E1B5F0BBB
:1009A000FA01E859FF4F84912F3F310511F008F00B
:1009B00080950895EF92FF920F931F93CF93DF934B
:1009C000FC018C0101541F4FD8014D915C91DC0159
:1009D000A354BF4F4D935C93DC01A859BF4F1496AD
:1009E0008D919C91159712962D913C91139782179A
:1009F000930721F42D913C91119707C014968D9186
:100A00009C9115979C012F5F3F4F15963C932E9319
:100A10001497EC0188818602C00111249595879571
:100A200095958795E801998388837F01D3ECED0E36
:100A3000F11CE701288139818F010F531F4FE80115
:100A400039832883840F951F35952795820F931F2F
:100A5000E70199838883AF014B535F4F21E018165C
:100A600019060CF020E0EA018881880F822B888328
:100A700016968D919C911797EC01688316962D918F
:100A80003C91179712968D919C91139728173907CF
:100A900021F48D919C91119705C016968D919C9192
:100AA0001797019617969C938E931697DA019C914F
:100AB000892F8695869589278370DF01AA53BF4FBA
:100AC000833039F48C91803214F48F5F01C08150EF
:100AD0008C938C91885F8C9380340CF45FC18F73FE
:100AE0008C93DF01A953BF4F8C91880F97702BEF28
:100AF000290F233010F0933009F481608C939C917E
:100B0000892F86958927809581709685990F892BE5
:100B100086878E3709F04EC0DF01AB58BF4F149661
:100B20002D913C9115978D919C911197281739071C
:100B300059F416962D913C91179712968D919C9190
:100B400013972817390781F016962D913C91179726
:100B500014968D919C911597019741E028173907BC
:100B600009F040E0842F01C081E080FDDCC01696D2
:100B7000CD91DC9117978EE7888316962D913C9145
:100B8000179712968D919C9113972817390721F486
:100B90008D919C91119705C016968D919C911797F8
:100BA000019617969C938E93169781E0818B2A9AD3
:100BB00041E0BCC0982F9F779F3719F4118A2A987B
:100BC000EDC09189992309F4E9C0982F9F739E3352
:100BD00009F4E4C080FF03C080898068808B87852A
:100BE0008F5F87879089883008F4A5C0DF01AB58F4
:100BF000BF4F82E8890F823018F09B3109F04BC05B
:100C000014962D913C9115978D919C9111972817D1
:100C1000390759F416962D913C91179712968D919C
:100C20009C9113972817390781F016962D913C91C6
:100C3000179714968D919C911597019741E028176D
:100C4000390709F040E0842F01C081E080FD1FC01A
:100C50001696CD91DC9117978BE1888316962D918E
:100C60003C91179712968D919C91139728173907ED
:100C700021F48D919C91119705C016968D919C91B0
:100C80001797019617969C938E93169704C0118A16
:100C90002A9840E001C041E014962D913C911597AF
:100CA0008D919C9111972817390759F416962D911B
:100CB0003C91179712968D919C911397281739079D
:100CC00081F016962D913C91179714968D919C91D9
:100CD0001597019751E02817390709F050E0852F43
:100CE00001C081E080FD1FC080891696CD91DC9106
:100CF0001797888316962D913C91179712968D9190
:100D00009C9113972817390721F48D919C91119785
:100D100005C016968D919C911797019617969C93F6
:100D20008E93169703C0118A2A9840E0108A17867E
:100D3000442321F033C09695908B30C0DF01A85337
:100D4000BF4F8D919C911197816011969C938E93CA
:100D5000EB58FF4F24813581808191812817390715
:100D600039F426813781828193812817390761F010
:100D70002681378184819581019741E028173907C1
:100D800009F040E0842F01C081E080FF07C0868128
:100D900097819583848311961C921E92DF91CF9147
:100DA0001F910F91FF90EF9008951F920F920FB631
:100DB0000F9211242F933F934F935F936F937F93E1
:100DC0008F939F93AF93BF93EF93FF9380E286BB84
:100DD0006091780070917900769567957695679522
:100DE000605880917808909179080E94DA04809187
:100DF0001301882349F080917808909179080E9426
:100E0000C203807F886001C080E88BB9809162084E
:100E100090916308A0916408B09165080196A11DA6
:100E2000B11D8093620890936308A0936408B09307
:100E30006508FF91EF91BF91AF919F918F917F9145
:100E40006F915F914F913F912F910F900FBE0F9037
:100E50001F9018951F93CF93DF93EC01162F82E814
:100E6000860F823010F06B3131F4688179818BE12B
:100E700090E00E94771468817981812F90E0DF9162
:100E8000CF911F910C9477140F931F93CF93DF93FF
:100E90008C010F5B1C4FD8012D913C91232B49F104
:100EA000EC01498550E0DC01AC5CBC4F2D913C91DC
:100EB00011972C503109241B350B11963C932E931E
:100EC000FC012D913C911197BF01681B790B6217B2
:100ED000730738F49F01240F351FE9012A852193F8
:100EE000F0CFD801ED91FC91DF91CF911F910F913F
:100EF0000994DF91CF911F910F910895AF92BF9206
:100F0000CF92DF92EF92FF920F931F93CF93DF93D5
:100F10005B016A017C0126ECE21A2CEFF20A2FEF4A
:100F20003FEFF701318320838C01005D1C4FF801F6
:100F3000608171818EE790E00E947714E501CA0C10
:100F4000DB1CCC15DD0529F06991C8010E942A0738
:100F5000F8CFF7016081C1816095C8010E942A071E
:100F60006C2F6095C8010E942A07F8016081718189
:100F70008EE790E0DF91CF911F910F91FF90EF905E
:100F8000DF90CF90BF90AF900C947714CF93DF9306
:100F9000EEE5F3E0DC01EF011D922197E9F7FC019A
:100FA000E05DFC4F51834083FC01EF5BFC4F3183DC
:100FB0002083FC01EE5CFC4F71836083FC01E65CE6
:100FC000FC4F2FEF3FEF31832083FC01E85CFC4FA7
:100FD0003183208330937B0820937A0830937D08F7
:100FE00020937C08DF91CF9108952F923F924F92EA
:100FF0005F926F927F928F929F92AF92BF92CF92A9
:10100000DF92EF92FF920F931F93CF93DF93CDB7B1
:10101000DEB728970FB6F894DEBF0FBECDBF282FDE
:1010200021702B8383FB442440F8512C81FBAA2799
:10103000A0F9B0E0A425B52584FB332730F93F8320
:10104000188686FB772770F979831A8282FB6624DB
:1010500060F8712C85FB222420F8312C8078E82F51
:10106000F0E0EE0FEF2FEE1FFF0BFE83ED83F62F68
:10107000F170FC8363FB882480F8912C61FB2227AC
:1010800020F930E02825392564FB442740F950E059
:1010900066FB002700F910E062FBCC24C0F8D12CDD
:1010A00065FBEE24E0F8F12C607870E0660F672FA6
:1010B000661F770B402751275A01AE24BF24A6266E
:1010C000B726C9018C259D25862797278295880FED
:1010D000880F807C60E8A69E80191124EF81F88536
:1010E00069817A81E627F727F887EF839E2F917031
:1010F0007B8197273A2F31709327890FA625B72533
:101100009D81A927E4E0AE9F800D1124EF81F88531
:10111000E225F3256D817E81E627F72778E0E79FBA
:10112000800D112441709C81492721704227E0E104
:101130004E9F800D112496012E253F25922F9170F0
:10114000FC819F27082519250170902720E2929F96
:10115000800D1124930122253325922F91703B811C
:10116000932729813A812425352521709227990FCB
:10117000890F28960FB6F894DEBF0FBECDBFDF9162
:10118000CF911F910F91FF90EF90DF90CF90BF9084
:10119000AF909F908F907F906F905F904F903F9017
:1011A0002F9008952F923F924F925F926F927F926D
:1011B0008F929F92AF92BF92CF92DF92EF92FF9267
:1011C0000F931F93CF93DF9300D000D0CDB7DEB73E
:1011D0004C01FC01EB5BFC4F8081D401A80FB11DD9
:1011E000AA5BBC4F6C938F5F80838C3009F09BC3EC
:1011F000C401805D9C4F9C838B83F401EA5BFC4FB0
:10120000FA83E9838081807891E0803809F090E06A
:101210009795992797955401F9EBAF1AFCEFBF0A00
:10122000F5018081807841E0803809F040E0F0E409
:101230004F9F900D1124492F640120EBC21A2CEF0F
:10124000D20AF6018081807891E0803809F090E040
:10125000490F7401F7EBEF1AFCEFFF0AF7018081E9
:10126000807891E0803809F090E0F0E29F9F400D97
:1012700011248401065B1C4FF8018081807891E085
:10128000803809F090E0F0E19F9F400D1124340177
:1012900024EB621A2CEF720AF3018081807891E0CE
:1012A000803809F090E0F8E09F9F400D1124240160
:1012B00023EB421A2CEF520AF2019081907881E0E0
:1012C000903809F080E0880F880F840F1401F1EB4B
:1012D0002F1AFCEF3F0AF1019081907861E090387D
:1012E00009F060E0660F680F8B819C810E942A07DD
:1012F000E981FA81908181E096FF80E087958827D7
:101300008795F501408191E046FF90E0F0E49F9FD2
:10131000800D1124982FF601408181E046FF80E086
:10132000980FF701408181E046FF80E0F0E28F9F57
:10133000900D1124F801408181E046FF80E0F0E14A
:101340008F9F900D1124F301408181E046FF80E0E2
:10135000F8E08F9F900D1124F201408181E046FF5B
:1013600080E0880F880F890FF101908161E096FF7E
:1013700060E0660F680F8B819C810E942A07E981DB
:10138000FA81908181E095FF80E087958827879595
:10139000F501408191E045FF90E0F0E49F9F800DD2
:1013A0001124982FF601408181E045FF80E0980FDD
:1013B000F701408181E045FF80E0F0E28F9F900DD2
:1013C0001124F801408181E045FF80E0F0E18F9F2A
:1013D000900D1124F301408181E045FF80E0F8E0A9
:1013E0008F9F900D1124F201408181E045FF80E044
:1013F000880F880F890FF101908161E095FF60E00F
:10140000660F680F8B819C810E942A07E981FA810F
:10141000908181E094FF80E0879588278795F5018A
:10142000408191E044FF90E0F0E49F9F800D112403
:10143000982FF601408181E044FF80E0980FF7018A
:10144000408181E044FF80E0F0E28F9F900D112405
:10145000F801408181E044FF80E0F0E18F9F900D32
:101460001124F301408181E044FF80E0F8E08F9F88
:10147000900D1124F201408181E044FF80E0880F4B
:10148000880F890FF101908161E094FF60E0660FA1
:10149000680F8B819C810E942A07C4018A5B9C4F44
:1014A0009A838983FC01908181E093FF80E0879596
:1014B000882787955401F9EBAF1AFCEFBF0AF501B5
:1014C000408191E043FF90E0F0E49F9F800D112464
:1014D000982F640120EBC21A2CEFD20AF60140814A
:1014E00081E043FF80E0980F7401F7EBEF1AFCEF07
:1014F000FF0AF701408181E043FF80E0F0E28F9F27
:10150000900D11248401065B1C4FF801408181E09D
:1015100043FF80E0F0E18F9F900D1124340124EB14
:10152000621A2CEF720AF301408181E043FF80E0F0
:10153000F8E08F9F900D1124240123EB421A2CEF29
:10154000520AF201408181E043FF80E0880F880F5A
:10155000890F1401F1EB2F1AFCEF3F0AF101908182
:1015600061E093FF60E0660F680F8B819C810E94B1
:101570002A07E981FA81908181E092FF80E08795D6
:1015800088278795F501408191E042FF90E0F0E4E3
:101590009F9F800D1124982FF601408181E042FF2A
:1015A00080E0980FF701408181E042FF80E0F0E2A7
:1015B0008F9F900D1124F801408181E042FF80E06F
:1015C000F0E18F9F900D1124F301408181E042FFF3
:1015D00080E0F8E08F9F900D1124F201408181E0BE
:1015E00042FF80E0880F880F890FF101908161E050
:1015F00092FF60E0660F680F8B819C810E942A0732
:10160000E981FA81908181E091FF80E087958827C8
:101610008795F501408191E041FF90E0F0E49F9FC4
:10162000800D1124982FF601408181E041FF80E078
:10163000980FF701408181E041FF80E0F0E28F9F49
:10164000900D1124F801408181E041FF80E0F0E13C
:101650008F9F900D1124F301408181E041FF80E0D4
:10166000F8E08F9F900D1124F201408181E041FF4D
:1016700080E0880F880F890FF101908161E091FF70
:1016800060E0660F680F8B819C810E942A07E981C8
:10169000FA818081F501608161706295660F660F45
:1016A000607CF0E88F9F60191124F60180818170C1
:1016B000680FF70180818170F0E28F9F600D112427
:1016C000F80180818170F0E18F9F600D1124F3019A
:1016D00080818170F8E08F9F600D1124F20180817C
:1016E0008170880F880F680FF10180818170880FE9
:1016F000680F8B819C810E942A075401F8EBAF1A76
:10170000FCEFBF0AF50170816401F5EBCF1AFCEF25
:10171000DF0AF60150817401F2EBEF1AFCEFFF0AC9
:10172000F701408184010F5A1C4FF8019081672F07
:10173000607881E0603809F080E087958827879598
:1017400061E073FF60E0F0E46F9F800D1124682F6B
:1017500081E093FF80E0680F81E0752F707870382A
:1017600009F080E020E2829F600D112481E053FFA8
:1017700080E0562FE0E18E9F500D112481E0642F10
:101780006078603809F080E0F8E08F9F500D1124F8
:1017900081E043FF80E0880F880F850F907861E03B
:1017A000903809F060E0660F680F8B819C810E9481
:1017B0002A07F5017081F6015081F7014081F80197
:1017C000908181E076FF80E087958827879561E0AA
:1017D00072FF60E0F0E46F9F800D1124682F81E0BC
:1017E00092FF80E0680F81E056FF80E020E2829F58
:1017F000600D112481E052FF80E0562FE0E18E9FC2
:10180000500D112481E046FF80E0F8E08F9F500DDD
:10181000112481E042FF80E0880F880F850F61E08E
:1018200096FF60E0660F680F8B819C810E942A07FB
:10183000F5017081F6015081F7014081F801908136
:1018400081E075FF80E087958827879561E071FFCB
:1018500060E0F0E46F9F800D1124682F81E091FF1C
:1018600080E0680F81E055FF80E020E2829F600DFC
:10187000112481E051FF80E0562FE0E18E9F500D52
:10188000112481E045FF80E0F8E08F9F500D112486
:1018900081E041FF80E0880F880F850F61E095FFB0
:1018A00060E0660F680F8B819C810E942A07F5011A
:1018B0007081F6016081F7015081F8014081972F16
:1018C0009170862F81708295807FF0E49F9F800DBC
:1018D0001124942F9170890F952F9170990F990F62
:1018E000890F91E074FF90E020E8929F8019112405
:1018F00091E064FF90E0E0E29E9F800D112491E072
:1019000054FF90E0F8E09F9F800D112461E044FFB8
:1019100060E0660F680F8B819C810E942A07F401AA
:10192000EB5BFC4F10820F900F900F900F90DF91A8
:10193000CF911F910F91FF90EF90DF90CF90BF90CC
:10194000AF909F908F907F906F905F904F903F905F
:101950002F9008951F93CF93DF93EC01162F0E94D1
:10196000D208DE01A65CBC4F2D913C911197F90184
:10197000E127FF27EE0FFF1FE851FF4F859194915C
:10198000232F3327822793278D939C9380911501D2
:10199000882349F0612F809114010E94F507682F78
:1019A000CE010E94D208109314018091150191E09C
:1019B000892780931501DF91CF911F9108950F938F
:1019C0001F93CF93DF93EC018B01FB0161810E9498
:1019D000AA0CF8016081CE010E94AA0CF801638173
:1019E000CE010E94AA0CF8016281CE01DF91CF9155
:1019F0001F910F910C94AA0C6F927F928F929F92DD
:101A0000AF92BF92CF92DF92EF92FF920F931F930C
:101A1000CF93DF93CDB7DEB72A970FB6F894DEBF2A
:101A20000FBECDBF8C013A014901FC01EB5BFC4FBD
:101A300010826C0186ECC81A8CEFD80A8FEF9FEFEA
:101A4000F60191838083CE0101967C018AE0F70143
:101A500011928A95E9F7F801EE5CFC4F0190F08154
:101A6000E02D808191819A838983828193819C83F7
:101A70008B83FB01808191819E838D838281938101
:101A800098878F838CE0820F877011F41A8603C0C9
:101A900098E0981B9A875801F0EDAF1AFCEFBF0A47
:101AA000F501608171818EE790E00E947714B701A3
:101AB000C8010E94DF0CBE016B5F7F4FC8010E940E
:101AC000DF0C6985C8010E94AA0C6A85C8010E94C2
:101AD000AA0C8A859FEF980F9A87882311F060E0FF
:101AE000F5CF7301860C971CE814F90439F0F7015F
:101AF00061917F01C8010E94AA0CF6CFF6016081B6
:101B0000F1806095C8010E94AA0C6F2D6095C801F4
:101B10000E94AA0CF501608171818EE790E00E941D
:101B200077142A960FB6F894DEBF0FBECDBFDF91B3
:101B3000CF911F910F91FF90EF90DF90CF90BF90CA
:101B4000AF909F908F907F906F9008959A01AB0116
:101B50006AE778E00C94FC0C4F925F927F928F9230
:101B60009F92AF92BF92CF92DF92EF92FF920F932C
:101B70001F93CF93DF939C012E5A3C4FF901D080E5
:101B8000EC01CD5ADC4FC880DC01AC5ABC4FEC9064
:101B90002C01FBEA4F1AFCEF5F0AF201F080AC0166
:101BA0004A5A5C4FFA010081AC01495A5C4FFA0174
:101BB0001081AC01485A5C4FFA017081AC01475A60
:101BC0005C4FFA01B080AC01465A5C4FFA0160816B
:101BD000AC01455A5C4FFA01A080AC01445A5C4FFD
:101BE000FA019080AC01435A5C4FFA014081FD2D0F
:101BF000F07851E0E0E8FE1350E0752E77947724FA
:101C0000779451E0FC2DF078E0E8FE1350E0F0E42A
:101C10005F9F700C112451E0EB2DE078F0E8EF139A
:101C200050E0750E51E0EE2DE078F0E8EF1350E053
:101C3000E0E25E9F700C112451E0FF2DF078E0E8A7
:101C4000FE1350E0F0E15F9F700C112451E0E02F93
:101C5000E078F0E8EF1350E0E8E05E9F700C1124AC
:101C600051E0F12FF078E0E8FE1350E0852E880C6B
:101C7000880C870C51E0F72FF078E0E8FE1350E075
:101C8000550F580DF901508321E0D6FE20E027952D
:101C90002227279531E0C6FE30E0F0E43F9F200D7B
:101CA0001124322F21E0B6FE20E0320F21E0E6FEC3
:101CB00020E050E2259F300D112421E0F6FE20E0C7
:101CC000E0E12E9F300D112421E006FF20E0F8E036
:101CD0002F9F300D1124232F31E016FF30E0330FFA
:101CE000330F320F21E076FF20E0220F230F2883ED
:101CF00021E0362F3078303809F020E02795222770
:101D0000279531E05A2D5078503809F030E050E4F2
:101D1000359F200D1124322F21E046FF20E0320FA5
:101D200021E0592D5078503809F020E0E0E22E9F54
:101D3000300D112421E0542F5078503809F020E064
:101D4000F0E12F9F300D112421E066FF20E058E0E4
:101D5000259F300D1124232F31E0A6FE30E0330FF4
:101D6000330F320F21E096FE20E0220F230F2C9339
:101D700021E0D5FE20E027952227279531E0C5FEFA
:101D800030E0E0E43E9F200D1124322F21E0B5FE2B
:101D900020E0320F21E0E5FE20E0F0E22F9F300D41
:101DA000112421E0F5FE20E050E1259F300D1124A3
:101DB00021E005FF20E0E8E02E9F300D1124232FC5
:101DC00031E015FF30E0330F330F320F21E075FFA4
:101DD00020E0220F230FF2012083FC01EA5AFC4F7E
:101DE00021E0D4FE20E027952227279531E0C4FE8C
:101DF00030E050E4359F200D1124322F21E0B4FE55
:101E000020E0320F21E0E4FE20E050E2259F300D7B
:101E1000112421E0F4FE20E050E1259F300D112433
:101E200021E004FF20E058E0259F300D1124232FEE
:101E300031E014FF30E0330F330F320F21E074FF35
:101E400020E0220F230F2083FC01E95AFC4F21E000
:101E500065FF20E027952227279531E0A5FE30E099
:101E600050E4359F200D1124322F21E044FF20E063
:101E7000320F21E095FE20E050E2259F300D112425
:101E800021E045FF20E050E1259F300D112421E0A5
:101E900064FF20E058E0259F300D1124232F31E00E
:101EA000A4FE30E0330F330F320F21E094FE20E028
:101EB000220F230F2083FC01E85AFC4F21E0D3FEC0
:101EC00020E027952227279531E0C3FE30E050E43B
:101ED000359F200D1124322F21E0B3FE20E0320F78
:101EE00021E0E3FE20E050E2259F300D112421E0A7
:101EF000F3FE20E050E1259F300D112421E003FF87
:101F000020E058E0259F300D1124232F31E013FFEE
:101F100030E0330F330F320F21E073FF20E0220F48
:101F2000230F2083FC01E75AFC4F21E0D2FE20E082
:101F300027952227279531E0C2FE30E050E4359FF7
:101F4000200D1124322F21E0B2FE20E0320F21E0DB
:101F5000E2FE20E050E2259F300D112421E0F2FE48
:101F600020E050E1259F300D112421E002FF20E008
:101F700058E0259F300D1124232F31E012FF30E06F
:101F8000330F330F320F21E072FF20E0220F230FB7
:101F90002083FC01E65AFC4F21E063FF20E02795F7
:101FA0002227279531E0A3FE30E050E4359F200D35
:101FB0001124322F21E042FF20E0320F21E093FE76
:101FC00020E050E2259F300D112421E043FF20E066
:101FD00050E1259F300D112421E062FF20E058E000
:101FE000259F300D1124232F31E0A2FE30E0330F66
:101FF000330F320F21E092FE20E0220F230F2083C7
:10200000FC01E55AFC4F21E0D1FE20E02795222774
:10201000279531E0C1FE30E050E4359F200D1124BA
:10202000322F21E0B1FE20E0320F21E0E1FE20E07E
:1020300050E2259F300D112421E0F1FE20E050E117
:10204000259F300D112421E001FF20E058E0259F5D
:10205000300D1124232F31E011FF30E0330F330F07
:10206000320F21E071FF20E0220F230F2083FC01BB
:10207000E45AFC4F2C2D21702295220F220F207C38
:1020800030E8D39E201911243B2D3170230F3E2DB3
:10209000317050E2359F200D11243F2D317050E1F9
:1020A000359F200D1124017038E0039F200D11246D
:1020B0001170110F110F210F7170770F270F2083EF
:1020C000FC01E35AFC4F362F31702A2D2170220F6C
:1020D000220F58E0359F200D1124342F3170230F2B
:1020E000392D3170330F230F31E061FF30E080E88C
:1020F000389F2019112431E0A1FE30E050E4359FD3
:10210000200D112431E091FE30E080E2389F200D57
:10211000112431E041FF30E040E1349F200D1124D3
:102120002083DF91CF911F910F91FF90EF90DF906F
:10213000CF90BF90AF909F908F907F905F904F9087
:1021400008952F923F924F925F926F927F928F925B
:102150009F92AF92BF92CF92DF92EF92FF920F9336
:102160001F93CF93DF93CDB7DEB729970FB6F894BF
:10217000DEBF0FBECDBF8C011C012DEB221A2CEF50
:10218000320A6C014CEBC41A4CEFD40A7C018CEC83
:10219000E81A8CEFF80AD801A85CBC4F2D01F801B1
:1021A000E35CFC4FFC83EB83C801845C9C4F9E8303
:1021B0008D83F801E05DFC4F808191810E9439148C
:1021C0009C012F3F9FEF390709F44EC1D1014C917B
:1021D000442309F4F2C02B31310529F4F601808142
:1021E000882309F4EAC0F801EA5CFC4F8081918100
:1021F0000196918380836CE070E00E948213892BAA
:1022000009F0DBC02B31310529F0C9018E57910946
:10221000029710F4D6011C92F70160817181C80108
:1022200041E050E0FC01E60FF71F3B97A081FC0165
:10223000EE5AFC4FA0834F5F5F4F01964C30510523
:1022400089F7F801E35AFC4F2083C8010E94AC0DC6
:10225000D7018D909C90B3E08B1A9108F701918281
:1022600080825801612C712CF501EE5AFC4F2081BF
:10227000F501ED5AFC4F3081F501EC5AFC4F90818D
:10228000632F822F2F83388799870E94F507AD81AE
:10229000BE818C93998589272F813885882309F4FD
:1022A0004FC0982F9F70998382958F708A83FE010B
:1022B000319680E090E041915FEF540F5230D8F1B9
:1022C0004430C9F14830B9F14330E9F0453009F400
:1022D000C9C0463041F0473071F0493071F050E0EC
:1022E0004A3069F002C054E00FC04B3051F04C301E
:1022F00059F450E809C058E007C050E105C050E269
:1023000003C050E401C051E08130910509F0A8C03C
:102310002527442381F0AB81BC814D915D916D9166
:102320007C9113974F5F5F4F6F4F7F4F4D935D933E
:102330006D937C93139701968230910509F0BBCF82
:10234000F20140815181FA01E227FF27EE0FFF1FC2
:10235000E851FF4F85919491452F55278427952764
:10236000FC01E327FF27EE0FFF1FE851FF4F4591C8
:102370005491892F992784279527D2018D939C9377
:10238000C30163E070E00E949613660F771F680D2B
:10239000791D600F711FFB0138972083FB01379770
:1023A0003083B3E06B0E711CE3E0AE0EB11CFCE0B9
:1023B0006F16710409F058CFFCCED6018C918111B3
:1023C00036C02E37310531F5F701808191810C97A8
:1023D00048F0D2018D919C91883B904F19F4C8012F
:1023E0000E94440781E0F10180838FEF9FEFD201CB
:1023F0008D939C93F70111821082F801EA5CFC4FE7
:1024000011821082AB81BC811D921D921D921C9283
:102410001397CFCE2F37310519F4F1011082C9CEB1
:102420002B31310521F481E0D6018C93C2CE4423B7
:10243000A1F0F701808191818033F3E09F0758F488
:10244000AC014F5F5F4FD7014D935C93F801E80FEC
:10245000F91F208302C0F1011082D6011C92A9CE7F
:10246000352757CF52E050CF29960FB6F894DEBFEC
:102470000FBECDBFDF91CF911F910F91FF90EF90D5
:10248000DF90CF90BF90AF909F908F907F906F9094
:102490005F904F903F902F90089590937F08809386
:1024A0007E08509367084093660870938208609393
:1024B00081080895EF92FF920F931F93CF93DF93BC
:1024C000EC018C017C018CECE81A8CEFF80AF70126
:1024D0008081918198012C1B3D0B2817390758F4F6
:1024E000F80181918F01609166087091670890E012
:1024F0000E947714ECCFDF91CF911F910F91FF9045
:10250000EF9008958F929F92AF92BF92CF92DF92F9
:10251000EF92FF920F931F93CF93DF93EC017B0118
:102520006A01E0918108F09182088189811144C09B
:102530000E94291490910001891788F4A601B7011F
:10254000CE01DF91CF911F910F91FF90EF90DF901F
:10255000CF90BF90AF909F908F900C94A60D8FB7A7
:10256000F8948090620890906308A0906408B090FE
:1025700065088FBF20910101309102014091030154
:1025800050910401AAE0B0E00E9477134FB7F8948D
:1025900000916208109163082091640830916508E9
:1025A0004FBF081919092A093B09061717072807F9
:1025B00039070CF0B6CFEACFE0918108F09182089C
:1025C0008189882309F4ADCF80917E0890917F089E
:1025D0000E94A110E0918108F0918208E853FF4F1A
:1025E00080819181892B41F311821082DF91CF91FB
:1025F0001F910F91FF90EF90DF90CF90BF90AF9021
:102600009F908F900895882399F040918808509169
:10261000890866E171E080917E0890917F080E94B0
:1026200082121092830810928908109288080895E7
:10263000809183088823D9F02FB7F894809162089D
:1026400090916308A0916408B09165082FBF4091F4
:102650008408509185086091860870918708841BD2
:10266000950BA60BB70BC397A105B10574F608959A
:102670009FB7F89440916208509163086091640894
:10268000709165089FBF40938408509385086093BC
:1026900086087093870891E090938308409188089A
:1026A000509189089A012F5F3F4F309389082093FA
:1026B0008808FA01EA5EFE4F80832432334018F026
:1026C00081E00C94031308950E9495018AE394E03D
:1026D0000E94A11080E00E941202882321F00E9433
:1026E0001C020E94381380E00E940313EFCF0E9467
:1026F000CC13A59F900DB49F900DA49F800D911DAC
:1027000011240895AA1BBB1B51E107C0AA1FBB1FC0
:10271000A617B70710F0A61BB70B881F991F5A956D
:10272000A9F780959095BC01CD01089597FB072EE0
:1027300016F4009407D077FD09D00E94821307FC9D
:1027400005D03EF4909581959F4F089570956195C1
:102750007F4F0895A1E21A2EAA1BBB1BFD010DC0DD
:10276000AA1FBB1FEE1FFF1FA217B307E407F50741
:1027700020F0A21BB30BE40BF50B661F771F881F1D
:10278000991F1A9469F760957095809590959B01B3
:10279000AC01BD01CF010895A29FB001B39FC0015C
:1027A000A39F700D811D1124911DB29F700D811D7D
:1027B0001124911D08958F929F92AF92BF92CF9254
:1027C000DF92EF92FF92CF93DF93EC0168817981E2
:1027D0008A819B81611571058105910521F464E26F
:1027E00079ED8BE597E02DE133EF41E050E00E9479
:1027F000B11449015A019B01AC01A7EAB1E40E945E
:1028000077136B017C01ACEEB4EFA50194010E943B
:10281000AC14C60ED71EE81EF91EF7FE06C081E0F6
:10282000C81AD108E10880E8F80AC882D982EA8289
:10283000FB82C6019F77DF91CF91FF90EF90DF90F1
:10284000CF90BF90AF909F908F9008950E94DB1320
:1028500008958EE091E00E94DB130895A0E0B0E0BF
:1028600080930E0190930F01A0931001B09311017A
:102870000895CF93DF93EC012B8120FF33C026FF17
:102880000AC02F7B2B838E819F8101969F838E832D
:102890008A8190E029C022FF0FC0E881F981808100
:1028A000992787FD9095009719F420622B831AC011
:1028B0003196F983E8830EC0EA85FB85099597FF79
:1028C00009C02B81019611F480E101C080E2822BC6
:1028D0008B8308C02E813F812F5F3F4F3F832E8324
:1028E000992702C08FEF9FEFDF91CF9108950F934B
:1028F0001F93CF93DF93182F092FEB018B8181FD5D
:1029000003C08FEF9FEF20C082FF10C04E815F8118
:102910002C813D81421753077CF4E881F9819F01A6
:102920002F5F3F4F39832883108306C0E885F985E0
:10293000812F0995892B29F72E813F812F5F3F4FEA
:102940003F832E83812F902FDF91CF911F910F9185
:102950000895B7FF0C9477130E947713821B930B93
:102960000895052E97FB1EF400940E94C81457FD8D
:1029700007D00E94AA1307FC03D04EF40C94C8148D
:1029800050954095309521953F4F4F4F5F4F08959B
:1029900090958095709561957F4F8F4F9F4F0895CB
:0429A000F894FFCFD9
:1029A400FFC80000001900000096000000FE0100AE
:0229B400000021
:00000001FF
