:100000000C9474010C9491010C9491010C94910145
:100010000C9491010C9491010C9491010C94910118
:100020000C9491010C9491010C9491010C94910108
:100030000C9491010C9491010C9491010C949101F8
:100040000C9491010C9491010C9491010C949101E8
:100050000C9491010C94FC060C9491010C94910168
:100060000C9491010C949101808183848687898A04
:100070008C8E8F9192949597989A9B9D9EA0A2A307
:10008000A5A6A7A9AAACADAFB0B2B3B5B6B7B9BA79
:10009000BCBDBEC0C1C2C4C5C6C8C9CACBCDCECF07
:1000A000D0D2D3D4D5D6D7D9DADBDCDDDEDFE0E1C0
:1000B000E2E3E4E5E6E7E8E9EAEAEBECEDEEEEEFB1
:1000C000F0F1F1F2F3F3F4F5F5F6F6F7F8F8F9F9E3
:1000D000FAFAFAFBFBFCFCFCFDFDFDFDFEFEFEFE5C
:1000E000FEFFFFFFFFFFFFFF0000891112239B327D
:1000F0002446AD573665BF74488CC19D5AAFD3BEF8
:100100006CCAE5DB7EE9F7F88110080193331A2207
:10011000A5562C47B7753E64C99C408DDBBF52AED7
:10012000EDDA64CBFFF976E802218B3010029913E7
:100130002667AF763444BD554AADC3BC588ED19FB7
:100140006EEBE7FA7CC8F5D983310A2091121803C7
:10015000A7772E66B5543C45CBBD42ACD99E508F97
:10016000EFFB66EAFDD874C904428D5316619F7097
:100170002004A9153227BB364CCEC5DF5EEDD7FC77
:100180006888E1997AABF3BA85520C4397711E6087
:10019000A1142805B3373A26CDDE44CFDFFD56EC57
:1001A000E9986089FBBB72AA06638F7214409D5167
:1001B0002225AB343006B9174EEFC7FE5CCCD5DD37
:1001C0006AA9E3B8788AF19B87730E6295501C4147
:1001D000A3352A24B1163807CFFF46EEDDDC54CD17
:1001E000EBB962A8F99A708B088481951AA793B627
:1001F0002CC2A5D33EE1B7F04008C919522BDB3A17
:10020000644EED5F766DFF7C899400859BB712A6E6
:10021000ADD224C3BFF136E0C1184809D33B5A2AF6
:10022000E55E6C4FF77D7E6C0AA583B418869197C6
:100230002EE3A7F23CC0B5D14229CB38500AD91BD6
:10024000666FEF7E744CFD5D8BB502A499961087A6
:10025000AFF326E2BDD034C1C3394A28D11A580BB6
:10026000E77F6E6EF55C7C4D0CC685D71EE597F476
:100270002880A1913AA3B3B2444ACD5B5669DF7896
:10028000600CE91D722FFB3E8DD604C79FF516E466
:10029000A9902081BBB332A2C55A4C4BD7795E6876
:1002A000E11C680DF33F7A2E0EE787F61CC495D546
:1002B0002AA1A3B03882B193466BCF7A5448DD5956
:1002C000622DEB3C700EF91F8FF706E69DD414C526
:1002D000ABB122A0B9923083C77B4E6AD5585C4936
:1002E000E33D6A2CF11E780F11241FBECFEFD8E03A
:1002F000DEBFCDBF11E0A0E0B1E0EAE9F9E202C063
:1003000005900D92A231B107D9F716E0A2E1B1E054
:1003100001C01D92A43BB107E1F70E945B130C944E
:10032000CB140C9400000C944C12789488EB95E05C
:100330000E941803E8E9F6E08FEF9FEF9183808336
:100340009383828323E931E048EB55E0BF018AE4DF
:1003500093E00E94EE078AE896E00E94CF01EEEA61
:10036000F6E08AE896E09383828391838083AC01F0
:1003700068EB75E08AE493E00C943F129091C00022
:1003800095FFFCCF8093C60081E090E008958091B6
:10039000C00087FFFCCF8091C60090E00895CF9306
:1003A000DF93CDB7DEB72E970FB6F894DEBF0FBE42
:1003B000CDBFDC018EE0FD01982F11929A95E9F7EF
:1003C0001092C50097E69093C400E0ECF0E09081B5
:1003D0009D7F908396E09093C20098E19093C10036
:1003E0009E012F5F3F4FF90111928A95E9F783E053
:1003F0008C838EEB91E09A87898787EC91E09C87CC
:100400008B879EE0F90101900D929A95E1F72E9667
:100410000FB6F894DEBF0FBECDBFDF91CF91089528
:10042000811106C08091C000881F8827881F089509
:1004300080E008958091C00087FF03C08091C600CE
:1004400008958FEF08950F931F93CF93DF93182F85
:10045000C0919C06D0919D06FE01E659FF4F808118
:10046000811126C080E490E098A38F8F1E8E1D8E90
:100470001C8E01E0008331960083299A20910901A6
:1004800030910A0140910B0150910C01A0EBB4E0B6
:100490000E946E136056704F8F4F9F4F20E43FE1D4
:1004A00040E050E00E94A1133D8B2C8B0093130180
:1004B0000FB7F89420910501309106014091070192
:1004C00050910801A0EBB4E00E946E136056704F8B
:1004D0008F4F9F4F20E43FE140E050E00E94A11386
:1004E0003F8B2E8B0FBFE0919C06F0919D064FB77E
:1004F000F89426A137A182A193A12817390739F4CE
:1005000020A531A584A195A12817390779F060A508
:1005100071A526A137A12150310991E080E0621731
:10052000730709F090E0292F382F02C021E030E056
:100530004FBF232BC1F6E0919C06F0919D062FB78B
:10054000F894A0A5B1A51C9340A551A584A195A19F
:100550004817590719F482A193A103C080A591A55A
:10056000019691A780A72FBF81E090E0DF91CF9106
:100570001F910F910895E0919C06F0919D064FB751
:10058000F894E758FF4F24813581868197814FBFCA
:1005900028173907E9F0E0919C06F0919D069FB776
:1005A000F894E758FF4FA481B58122813381A217C7
:1005B000B30719F42081318105C0A481B5819D0163
:1005C0002F5F3F4F358324838C919FBF90E0089528
:1005D0008FEF9FEF0895109212010895109212016B
:1005E0001092800089E18093810081E896E09093E9
:1005F00087008093860080911201882321F080E497
:1006000080937C0002C010927C00389840988091C2
:100610007E00816080937E0087E080937B008CEE7B
:1006200080937A008AB1886F8AB9219A229A0895B4
:100630000F931F93CF93DF93CDB7DEB72E970FB6EF
:10064000F894DEBF0FBECDBF8C018EECD8011D9299
:100650008A95E9F710939D0600939C0680E490E04C
:10066000F80190A3878F11A2C8018C589F4FE459BD
:10067000FF4F918380839783868395838483049639
:10068000938382830996D801A758BF4F11969C93F4
:100690008E9317969C938E93169715969C938E9394
:1006A0001497CF9613969C938E931297865991091F
:1006B000D80193969C938E93929799969C938E9340
:1006C000989797969C938E939697CF9695969C9392
:1006D0008E93949784E090E0A681B7811C92468126
:1006E0005781228133814217530719F420813181C8
:1006F00004C0268137812F5F3F4F378326830197C0
:1007000059F70E94EE028EE0FE013196DF01982F2C
:100710001D929A95E9F793E09C8323E232E03A87B1
:1007200029872BEB32E03C872B87D80101900D9273
:100730008A95E1F72E960FB6F894DEBF0FBECDBFB7
:10074000DF91CF911F910F9108950F931F93CF9336
:10075000DF93E0919C06F0919D0620A531A537A37B
:1007600026A3EC018C01060F171FC017D10731F02B
:1007700060E070E089910E942302F7CFDF91CF9172
:100780001F910F910895DC0158968C915897811113
:10079000F8C05A968C915A978111AEC096964D9199
:1007A0005C91979798962D913C9199974217530792
:1007B00079F456962D913C915797232B49F410923A
:1007C0001301FD01E659FF4F1082A559BF4F68C0C4
:1007D0005B969C915B97911103C05C961C925C9711
:1007E00091E05B969C935B9754962D913C91559725
:1007F00021153105B9F596964D915C91979798968C
:100800002D913C9199974217530779F4FD01E559D1
:10081000FF4F108256962D913C91579721503109E8
:1008200057963C932E93569723C09696ED91FC9144
:10083000979794962D913C919597E217F30729F499
:1008400092962D913C91939707C09696ED91FC91CD
:1008500097979F012F5F3F4F97963C932E939697C4
:10086000908107C02150310955963C932E9354979F
:100870009EE759969C93599759969C9159979B310D
:1008800089F596964D915C91979798962D913C910C
:1008900099974217530739F410921301A659BF4F85
:1008A0001C92299808959696ED91FC9197979496AD
:1008B0008D919C919597E817F90729F492968D915F
:1008C0009C91939706C09696ED91FC919797CF01D6
:1008D000019697969C938E939697808159968C93C8
:1008E000599706C09E57923018F45B961C925B97FE
:1008F00081E05A968C935A975B968C915B975F96A2
:100900002D913C9190978823A9F05C968C915C97EF
:10091000853080F05C961C925C972034310519F08C
:1009200080E490E002C085E790E090969C938E93DF
:100930005F9723C05A968C915A9759969C915997D4
:10094000982341F05C969C915C979F5F5C969C938A
:100950005C970FC05C961C925C972034310519F0AF
:1009600020E430E002C025E730E090963C932E93DF
:100970005F97880F5A968C935A9788E058968C9375
:1009800058975F96ED91FC9190975D968D919C9113
:100990005E97E80FF91F9F0131705E963C932E938E
:1009A0005D9758968C915897815058968C93FF2755
:1009B000E038F10530F08FEF90E0AC014E1B5F0B9B
:1009C000FA01E859FF4F84912F3F310511F008F0EB
:1009D00080950895EF92FF920F931F93CF93DF932B
:1009E000FC018C010D531F4FD8014D915C91119763
:1009F000129711965C934E93A555B10914968D915B
:100A00009C91159712962D913C91139782179307FD
:100A100021F42D913C91119707C014968D919C91D2
:100A200015979C012F5F3F4F15963C932E9314977B
:100A3000EC012881260290011124C9019595879522
:100A400095958795E801998388837F01D7ECED0E12
:100A5000F11CE701288139818F010B531F4FE801F9
:100A600039832883840F951F35952795820F931F0F
:100A7000E70199838883AF0147535F4F21E0181640
:100A800019060CF420E0EA018881880F822B888304
:100A900016968D919C911797EC01688316962D916F
:100AA0003C91179712968D919C91139728173907AF
:100AB00021F48D919C91119705C016968D919C9172
:100AC0001797019617969C938E931697DA018C913F
:100AD000982F9695969589278370DF01A653BF4F6F
:100AE000833049F48C91803214F48F5F01C08150BF
:100AF0008C9311A203C081A18F5F81A38C91885F29
:100B0000803414F48C936BC18F738C93DF01A553E5
:100B1000BF4F8C91880F8C93EA01988197702BEFCF
:100B2000290F233010F0933011F481608C938C9155
:100B3000982F96958927809581709685990F892B96
:100B400086878E3709F052C0DF01A758BF4F149631
:100B50002D913C9115978D919C91119728173907EC
:100B600059F416962D913C91179712968D919C9160
:100B7000139728173907B1F116962D913C911797C5
:100B800014968D919C91159701972817390751F16B
:100B90001696CD91DC9117978EE7888316962D9146
:100BA0003C91179712968D919C91139728173907AE
:100BB00021F48D919C91119705C016968D919C9171
:100BC0001797019617969C938E93169791E0918BA9
:100BD0008389863020F4128A8F5F838B01C0928BC9
:100BE00081E0BFC0118A128A138ABAC08F778F370B
:100BF00011F4118A09C08289882311F02A9A01C050
:100C00002A988189811103C0128A138AE8C08685D7
:100C1000982F9F739E3309F4E2C080FF03C0808940
:100C20008068808B97859F5F97878089983008F4CC
:100C30009DC0DF01A758BF4F92E8980F923018F07F
:100C40008B3109F046C014962D913C9115978D91EA
:100C50009C9111972817390759F416962D913C91BC
:100C6000179712968D919C9113972817390759F170
:100C700016962D913C91179714968D919C911597EE
:100C8000019728173907F9F01696CD91DC9117973F
:100C90008BE1888316962D913C91179712968D9132
:100CA0009C9113972817390721F48D919C911197E6
:100CB00005C016968D919C911797019617969C9357
:100CC0008E93169706C0118A128A138A2A9880E09A
:100CD00001C081E014964D915C9115972D913C9146
:100CE00011974217530759F416964D915C91179737
:100CF00012962D913C9113974217530769F116965E
:100D00004D915C91179714962D913C911597215018
:100D100031094217530701F190891696CD91DC9164
:100D20001797988316964D915C91179712962D916F
:100D30003C9113974217530721F42D913C91119741
:100D400006C016962D913C9117972F5F3F4F17962F
:100D50003C932E93169705C0118A128A138A2A98FB
:100D600080E0108A1786882321F039C08695808B11
:100D700036C0EF01C453DF4F888199818160998328
:100D80008883DF01A758BF4F14962D913C9115978A
:100D90008D919C9111972817390759F416962D912A
:100DA0003C91179712968D919C91139728173907AC
:100DB00061F016962D913C91179714968D919C9108
:100DC000159701972817390751F416968D919C9124
:100DD000179715969C938E9314971982188281A168
:100DE000813618F011A2128A2A98DF91CF911F91B3
:100DF0000F91FF90EF9008951F920F920FB60F92F0
:100E000011242F933F934F935F936F937F938F930F
:100E10009F93AF93BF93EF93FF9380E286BB609164
:100E2000780070917900769567957695679560580A
:100E300080919C0690919D060E94EA048091130186
:100E4000882349F080919C0690919D060E94C303DF
:100E5000807F886001C080E88BB980918606909180
:100E60008706A0918806B09189060196A11DB11D43
:100E70008093860690938706A0938806B093890690
:100E8000FF91EF91BF91AF919F918F917F916F9162
:100E90005F914F913F912F910F900FBE0F901F9038
:100EA00018950F931F93CF938C01C62F82E8860F5E
:100EB000823010F06B3139F4F801608171818BE17F
:100EC00090E00E946C14F801608171818C2F90E099
:100ED000CF911F910F910C946C140F931F93CF938C
:100EE000DF938C010F5A1D4FD8012D913C91119722
:100EF000232B39F1EC01498550E01D972D913C9150
:100F000011972C503109241B350B11963C932E93CD
:100F1000FC016D917C9111979F01281B390B2617BD
:100F2000370738F49F01240F351FE9012A852193E3
:100F3000F0CFD801ED91FC91DF91CF911F910F91EE
:100F40000994DF91CF911F910F910895AF92BF92B5
:100F5000CF92DF92EF92FF920F931F93CF93DF9385
:100F60005B016A017C0126EBE21A2DEFF20A2FEFFA
:100F70003FEFF70131832083EC01C05CDD4F6881D6
:100F800079818EE790E00E946C148501CA0CDB1C0D
:100F90000C151D0539F0F80161918F01CE010E94F9
:100FA0005107F6CFF701608111816095CE010E9453
:100FB0005107612F6095CE010E94510768817981A8
:100FC0008EE790E0DF91CF911F910F91FF90EF900E
:100FD000DF90CF90BF90AF900C946C14CF93DF93C1
:100FE000EEE6F2E0DC01EF011D922197E9F7FC014A
:100FF000E05CFD4F518340837196318320833F979E
:101000007183608338962FEF3FEF318320833297CF
:1010100031832083EEE9F6E031832083338322831A
:10102000DF91CF9108952F923F924F925F926F92EE
:101030007F928F929F92AF92BF92CF92DF92EF9268
:10104000FF920F931F93CF93DF93CDB7DEB728970F
:101050000FB6F894DEBF0FBECDBF982F917083FB03
:10106000442440F8512C81FBAA24A0F8B12C920111
:101070002A253B253A83298384FB332730F93B8398
:101080001C8286FB662460F8712C82FB002700F925
:1010900010E085FB882480F8912C8078A82FB0E0A0
:1010A0001D01220C232C221C3308862F817063FB28
:1010B000222720F930E061FB442740F950E0422725
:1010C000532764FBEE27E0F9F0E066FBEE24E0F83E
:1010D000F12C62FBCC24C0F8D12C65FB772770F98A
:1010E0007D831E82607870E0660F672F661F770B26
:1010F000DF01AE25BF25B887AF83ED81FE81AE2726
:10110000BF27A627B7275A01AC24BD246A257B2513
:101110006295660F660F607CA62EF0E8AF9FA01860
:101120001124AB81BC81A625B7256A2F6170692780
:1011300079817170562F57276A2D650FA980BA8063
:10114000A026B126A22474E0A79E600D1124A82534
:10115000B925A225B325E8E0AE9F600D1124EF81EB
:10116000E170E82741704E27F0E14F9F600D112498
:101170004D815E814C255D25417084272E253F25BC
:101180002170282730E2239F600D1124082519259E
:101190000170802F8927A30144255525942F917034
:1011A0008927880F860F28960FB6F894DEBF0FBEEA
:1011B000CDBFDF91CF911F910F91FF90EF90DF9006
:1011C000CF90BF90AF909F908F907F906F905F90E7
:1011D0004F903F902F9008952F923F924F925F92A1
:1011E0006F927F928F929F92AF92BF92CF92DF9237
:1011F000EF92FF920F931F93CF93DF9300D000D015
:10120000CDB7DEB79C01DC01AB5ABD4F9C91F90113
:10121000E90FF11DEA5AFD4F60839F5F9C939C305C
:1012200009F088C34901C901805C9D4F9C838B8371
:101230001196BA83A9839C91892F881F8827881FBC
:101240008795882787955901B9EAAB1ABDEFBB0A84
:10125000F5014081942F991F9927991F682FF0E479
:101260009F9F600D1124690120EAC21A2DEFD20A56
:10127000D6019C91892F881F8827881F860F7401AB
:10128000B7EAEB1ABDEFFB0AF7014081942F991FD3
:101290009927991FF0E29F9F800D11248401065A1F
:1012A0001D4FD8014C91942F991F9927991FB0E198
:1012B0009B9F800D11243401E4EA6E1AEDEF7E0A43
:1012C000D3014C91942F991F9927991FB8E09B9FA8
:1012D000800D11242401E3EA4E1AEDEF5E0AD201DB
:1012E0009C91692F661F6627661F660F660F680F41
:1012F0001401B1EA2B1ABDEF3B0AF1018081982F4E
:10130000991F9927991F990F690F8B819C810E94C2
:101310005107A981BA819C9181E096FF80E0879571
:1013200088278795F501408191E046FF90E0682F7E
:10133000F0E49F9F600D1124D6019C9181E096FFFF
:1013400080E0860FF701408191E046FF90E0F0E2F7
:101350009F9F800D1124D8014C9191E046FF90E0B1
:10136000B0E19B9F800D1124F301408191E046FF85
:1013700090E0F8E09F9F800D1124D2019C9161E0E4
:1013800096FF60E0660F660F680FF101808191E0C3
:1013900086FF90E0990F690F8B819C810E94510715
:1013A000A981BA819C9181E095FF80E0879588278B
:1013B0008795F501408191E045FF90E0682FF0E4CA
:1013C0009F9F600D1124D6019C9181E095FF80E0E4
:1013D000860FF701408191E045FF90E0F0E29F9F8A
:1013E000800D1124D8014C9191E045FF90E0B0E1CF
:1013F0009B9F800D1124F301408191E045FF90E017
:10140000F8E09F9F800D1124D2019C9161E095FF2F
:1014100060E0660F660F680FF101808191E085FF43
:1014200090E0990F690F8B819C810E945107A981DF
:10143000BA819C9181E094FF80E087958827879509
:10144000F501408191E044FF90E0682FF0E49F9F18
:10145000600D1124D6019C9181E094FF80E0860FFD
:10146000F701408191E044FF90E0F0E29F9F800D02
:101470001124D8014C9191E044FF90E0B0E19B9F92
:10148000800D1124F301408191E044FF90E0F8E0E9
:101490009F9F800D1124D2019C9161E094FF60E038
:1014A000660F660F680FF101808191E084FF90E084
:1014B000990F690F8B819C810E945107C4018A5A40
:1014C0009D4F9A838983DC019C9181E093FF80E0AA
:1014D0008795882787955401B9EAAB1ABDEFBB0AF7
:1014E000F501408191E043FF90E0682FF0E49F9F79
:1014F000600D1124640120EAC21A2DEFD20AD60130
:101500009C9181E093FF80E0860F7401B7EAEB1AAB
:10151000BDEFFB0AF701408191E043FF90E0F0E26C
:101520009F9F800D11248401065A1D4FD8014C91B4
:1015300091E043FF90E0B0E19B9F800D11243401C6
:10154000E4EA6E1AEDEF7E0AD3014C9191E043FF7D
:1015500090E0B8E09B9F800D11242401E3EA4E1A2D
:10156000EDEF5E0AD2019C9161E093FF60E0660FAF
:10157000660F680F1401B1EA2B1ABDEF3B0AF101A7
:10158000808191E083FF90E0990F690F8B819C81AE
:101590000E945107A981BA819C9181E092FF80E06D
:1015A000879588278795F501408191E042FF90E07B
:1015B000682FF0E49F9F600D1124D6019C9181E07B
:1015C00092FF80E0860FF701408191E042FF90E0BA
:1015D000F0E29F9F800D1124D8014C9191E042FFD1
:1015E00090E0B0E19B9F800D1124F301408191E0D8
:1015F00042FF90E0F8E09F9F800D1124D2019C9162
:1016000061E092FF60E0660F660F680FF101808174
:1016100091E082FF90E0990F690F8B819C810E947D
:101620005107A981BA819C9181E091FF80E0879563
:1016300088278795F501408191E041FF90E0682F70
:10164000F0E49F9F600D1124D6019C9181E091FFF1
:1016500080E0860FF701408191E041FF90E0F0E2E9
:101660009F9F800D1124D8014C9191E041FF90E0A3
:10167000B0E19B9F800D1124F301408191E041FF77
:1016800090E0F8E09F9F800D1124D2019C9161E0D1
:1016900091FF60E0660F660F680FF101808191E0B5
:1016A00081FF90E0990F690F8B819C810E94510707
:1016B000A981BA819C91F501808181708295880F02
:1016C000880F807CF0E89F9F80191124D6019C919F
:1016D0009170890FF70190819170F0E29F9F800DCA
:1016E0001124D8019C919170B0E19B9F800D112431
:1016F000F30190819170F8E09F9F800D1124D20139
:101700006C916170660F660F680FF10190819170A6
:10171000990F690F8B819C810E9451075401F8EA4F
:10172000AF1AFDEFBF0AD5016C916401B5EACB1A7F
:10173000BDEFDB0AF60170817401F2EAEF1AFDEFEA
:10174000FF0AD7019C9184010F591D4FF801408178
:10175000862F881F8827881F87958827879551E0BF
:1017600063FF50E0682FF0E45F9F600D112481E07B
:1017700043FF80E0860F572F551F5527551F20E246
:10178000529F800D112451E073FF50E0A0E15A9F59
:10179000800D1124592F551F5527551FB8E05B9F09
:1017A000800D112461E093FF60E0660F660F680F03
:1017B000942F991F9927991F990F690F8B819C81ED
:1017C0000E945107F5016081D6017C91F70190815B
:1017D000D8014C9181E066FF80E087958827879546
:1017E00051E062FF50E0682FB0E45B9F600D112470
:1017F00081E042FF80E0860F51E076FF50E0E0E2BA
:101800005E9F800D112451E072FF50E0F0E15F9F78
:10181000800D112451E096FF50E028E0529F800D8A
:10182000112461E092FF60E0660F660F680F91E09F
:1018300046FF90E0990F690F8B819C810E945107B0
:10184000D5016C91F6017081D7019C91F80140811E
:1018500081E065FF80E087958827879551E061FFEB
:1018600050E0682FF0E45F9F600D112481E041FF9C
:1018700080E0860F51E075FF50E020E2529F800D1E
:10188000112451E071FF50E0A0E15A9F800D112416
:1018900051E095FF50E0B8E05B9F800D112461E0BE
:1018A00091FF60E0660F660F680F91E045FF90E0E2
:1018B000990F690F8B819C810E945107D501EC9192
:1018C000D6017C91D7015C91D8014C919E2F9170EB
:1018D000872F81708295807FB0E49B9F800D1124BB
:1018E000642F6170860F952F9170990F990F890F52
:1018F00091E0E4FF90E0E0E89E9F8019112491E0E0
:1019000074FF90E0F0E29F9F800D112491E054FF5E
:1019100090E028E0929F800D112461E044FF60E098
:10192000660F680F8B819C810E945107F401EB5A6E
:10193000FD4F10820F900F900F900F90DF91CF917D
:101940001F910F91FF90EF90DF90CF90BF90AF90DD
:101950009F908F907F906F905F904F903F902F90CF
:1019600008951F93CF93DF93EC01162F0E94EC088C
:10197000DE01A65BBD4F2D913C911197F901E12746
:10198000FF27EE0FFF1FE851FF4F85919491232F02
:101990003327282739272D933C93809115018823DD
:1019A00049F0612F809114010E941308682FCE0125
:1019B0000E94EC08109314019091150181E0892791
:1019C00080931501DF91CF911F9108950F931F937D
:1019D000CF93DF93EC018B01FB0161810E94B10C7D
:1019E000F8016081CE010E94B10CF8016381CE0143
:1019F0000E94B10CF8016281CE01DF91CF911F915D
:101A00000F910C94B10C6F927F928F929F92AF9234
:101A1000BF92CF92DF92EF92FF920F931F93CF93DB
:101A2000DF93CDB7DEB72A970FB6F894DEBF0FBEAF
:101A3000CDBF8C013A016901FC01EB5AFD4F1082C8
:101A40005C0186EBA81A8DEFB80A8FEF9FEFF501C6
:101A500091838083CE0101967C018AE0F701119287
:101A60008A95E9F7F801EE5BFD4F0190F081E02DDA
:101A7000808191819A838983828193819C838B83E6
:101A8000FB01808191819E838D83828193819887E0
:101A90008F838CE0820F877011F41A8603C098E060
:101AA000981B9A874801F0EC8F1AFDEF9F0AF4010A
:101AB000608171818EE790E00E946C14B701C801CB
:101AC0000E94E60CBE016B5F7F4FC8010E94E60CCE
:101AD0006985C8010E94B10C6A85C8010E94B10CD9
:101AE0008A859FEF980F9A87882311F060E0F5CFE1
:101AF0007301C60CD71CEC14FD0439F0F701619199
:101B00007F01C8010E94B10CF6CFF5016081F18020
:101B10006095C8010E94B10C6F2D6095C8010E94AC
:101B2000B10CF401608171818EE790E00E946C1429
:101B30002A960FB6F894DEBF0FBECDBFDF91CF91CE
:101B40001F910F91FF90EF90DF90CF90BF90AF90DB
:101B50009F908F907F906F9008959A01AB016EE9EE
:101B600076E00C94030D6F927F928F929F92AF92CA
:101B7000BF92CF92DF92EF92FF920F931F93CF937A
:101B8000DF938C010E591D4FF801B080EC01CD5947
:101B9000DD4F5881DC01AC59BD4FDC903C01FBE9C5
:101BA0006F1AFDEF7F0AF30170819C012A593D4FA6
:101BB000F90160812F5F3F4FF90140812F5F3F4F57
:101BC000F90130817C01F7E9EF1AFDEFFF0AF70117
:101BD00020817C01F6E9EF1AFDEFFF0AF701C080D2
:101BE0007C01F5E9EF1AFDEFFF0AF701A0807C0107
:101BF000F4E9EF1AFDEFFF0AF70190807C01F3E9A9
:101C0000EF1AFDEFFF0AF701F080EB2CEE1CEE243B
:101C1000EE1CE794EE24E794852E881C8824881C0B
:101C2000F0E48F9EE00C11248E2CE22EEE1CEE24AC
:101C3000EE1CE80C8D2C881C8824881CE0E28E9E0B
:101C4000E00C1124872E881C8824881CF0E18F9ECC
:101C5000E00C1124862E881C8824881CE8E08E9EC7
:101C6000E00C1124842E881C8824881C880C880C85
:101C7000E80C832E881C8824881C880CE80CF8014A
:101C8000E08211E0B6FE10E017951127179501E0EC
:101C900056FF00E0F0E40F9F100D1124012F11E01A
:101CA00026FF10E0100F01E0D6FE00E0E0E20E9FFC
:101CB000100D112401E076FF00E0F0E10F9F100D00
:101CC000112401E066FF00E0E8E00E9F100D1124F2
:101CD00001E046FF00E0000F000F100F01E036FFAB
:101CE00000E0000F100F1883CC2DCC1FCC27CC1F89
:101CF000C795CC27C795DA2DDD1FDD27DD1FF0E462
:101D0000DF9FC00D1124DC2FC1E0F6FEC0E0CD0F37
:101D1000D92DDD1FDD27DD1FE0E2DE9FC00D112480
:101D2000DF2DDD1FDD27DD1FF0E1DF9FC00D11245A
:101D3000D1E0C6FED0E0E8E0DE9FC00D1124D1E086
:101D4000A6FED0E0DD0FDD0FCD0FD1E096FED0E096
:101D5000DD0FCD0FCC93A1E0B5FEA0E0A795AA279B
:101D6000A795B1E055FFB0E0F0E4BF9FA00D1124AE
:101D7000BA2FA1E025FFA0E0AB0FB1E0D5FEB0E0A7
:101D8000C0E2BC9FA00D1124B1E075FFB0E0E0E11E
:101D9000BE9FA00D1124B1E065FFB0E0F8E0BF9F49
:101DA000A00D1124B1E045FFB0E0BB0FBB0FAB0F9E
:101DB000B1E035FFB0E0BB0FAB0FF301A083FC0136
:101DC000EA59FD4FA1E0B4FEA0E0A795AA27A79588
:101DD000B1E054FFB0E0C0E4BC9FA00D1124BA2FC5
:101DE000A1E024FFA0E0AB0FB1E0D4FEB0E0C0E280
:101DF000BC9FA00D1124B1E074FFB0E0C0E1BC9F16
:101E0000A00D1124B1E064FFB0E0C8E0BC9FA00DBC
:101E10001124B1E044FFB0E0BB0FBB0FAB0FB1E04A
:101E200034FFB0E0BB0FAB0FA083FC01E959FD4FBD
:101E3000A1E0C5FEA0E0A795AA27A795B1E0A5FE61
:101E4000B0E0C0E4BC9FA00D1124BA2FA1E0F4FEC5
:101E5000A0E0AB0FB1E095FEB0E0C0E2BC9FA00DEA
:101E60001124B1E0F5FEB0E0C0E1BC9FA00D11244B
:101E7000B1E0C4FEB0E0C8E0BC9FA00D1124B1E009
:101E8000A4FEB0E0BB0FBB0FAB0FB1E094FEB0E01F
:101E9000BB0FAB0FA083FC01E859FD4FA1E0B3FEDF
:101EA000A0E0A795AA27A795B1E053FFB0E0C0E452
:101EB000BC9FA00D1124BA2FA1E023FFA0E0AB0F1F
:101EC000B1E0D3FEB0E0C0E2BC9FA00D1124B1E0B0
:101ED00073FFB0E0C0E1BC9FA00D1124B1E063FF2F
:101EE000B0E0C8E0BC9FA00D1124B1E043FFB0E01A
:101EF000BB0FBB0FAB0FB1E033FFB0E0BB0FAB0FBD
:101F0000A083FC01E759FD4FA1E0B2FEA0E0A79538
:101F1000AA27A795B1E052FFB0E0C0E4BC9FA00D96
:101F20001124BA2FA1E022FFA0E0AB0FB1E0D2FE56
:101F3000B0E0C0E2BC9FA00D1124B1E072FFB0E0A0
:101F4000C0E1BC9FA00D1124B1E062FFB0E0C8E089
:101F5000BC9FA00D1124B1E042FFB0E0BB0FBB0F4E
:101F6000AB0FB1E032FFB0E0BB0FAB0FA083FC01C1
:101F7000E659FD4FA1E0C3FEA0E0A795AA27A795CB
:101F8000B1E0A3FEB0E0C0E4BC9FA00D1124BA2FC5
:101F9000A1E0F2FEA0E0AB0FB1E093FEB0E0C0E242
:101FA000BC9FA00D1124B1E0F3FEB0E0C0E1BC9FE6
:101FB000A00D1124B1E0C2FEB0E0C8E0BC9FA00DAE
:101FC0001124B1E0A2FEB0E0BB0FBB0FAB0FB1E03C
:101FD00092FEB0E0BB0FAB0FA083FC01E559FD4FB3
:101FE000A1E0B1FEA0E0A795AA27A795B1E051FF17
:101FF000B0E0C0E4BC9FA00D1124BA2FA1E021FFE6
:10200000A0E0AB0FB1E0D1FEB0E0C0E2BC9FA00DFC
:102010001124B1E071FFB0E0C0E1BC9FA00D11241C
:10202000B1E061FFB0E0C8E0BC9FA00D1124B1E0B9
:1020300041FFB0E0BB0FBB0FAB0FB1E031FFB0E031
:10204000BB0FAB0FA083FC01E459FD4F51705295BB
:10205000550F550F507CA0E8BA9E501911242170DD
:10206000250F5D2D5170C0E25C9F200D1124717011
:1020700050E1759F200D11246170A8E06A9F200D2A
:1020800011244170440F440F240F3170330F230F7C
:10209000208331968C2D81709A2D9170990F990F14
:1020A000C8E08C9F900D11248F2D8170980F292DE1
:1020B0002170220F920F81E0C1FE80E020E8829F14
:1020C0009019112481E0A1FE80E050E4859F900DDD
:1020D000112481E091FE80E0A0E28A9F900D1124FE
:1020E00081E0F1FE80E0C0E18C9F900D112490838F
:1020F000DF91CF911F910F91FF90EF90DF90CF90E4
:10210000BF90AF909F908F907F906F9008952F9287
:102110003F924F925F926F927F928F929F92AF9277
:10212000BF92CF92DF92EF92FF920F931F93CF93C4
:10213000DF93CDB7DEB72B970FB6F894DEBF0FBE97
:10214000CDBF8C014C012DEA821A2DEF920A5C0161
:102150003CEAA31A3DEFB30A7C014CEBE41A4DEFC5
:10216000F40A9C01235B3D4F3C832B831C0133E924
:10217000231A3DEF330A9C01245B3D4F38872F83A0
:10218000F801E05CFD4F808191810E942E149C013A
:10219000019609F45BC1D4014C91442309F4F2C0C7
:1021A0002B31310529F4F5018081882309F4EAC037
:1021B000F801EA5BFD4F80819181019691838083D4
:1021C0006CE070E00E947913892B09F0DBC02B31A1
:1021D000310529F0C9018E579109029710F4D501F4
:1021E0001C92F70180819181F801EE59FD4F8D56C7
:1021F0009240DF01A80FB91F4C914193E215F305FE
:10220000C1F7D1012C93C8010E94B30DF7014080A2
:102210005180F3E04F1A5108D7014D925C9268014A
:10222000BCE9CB1ABDEFDB0A612C712C9801285B4D
:102230003D4F3E832D83F6013297208131963081C8
:10224000D6019C91632F822F29873A879B870E9412
:102250001308EF81F88580839B85892729853A8536
:10226000882309F451C0982F9F70998382958F70AD
:102270008A83FE01319680E090E041915FEF540F38
:102280005230E8F14430D9F14830C9F1433009F413
:10229000DBC0453041F0463059F0473071F050E036
:1022A000493089F002C052E013C04A3071F002C0D8
:1022B00054E00EC04B3059F002C058E009C04C3019
:1022C00009F4BDC005C050E103C050E201C050E4B4
:1022D0008130910509F0AFC025274423A9F0AB81D7
:1022E000BC814D915D916D917C9113974F5F5F4FD4
:1022F0006F4F7F4F4D935D936D937C931397019731
:1023000019F081E090E0B9CFED81FE8140815181EB
:10231000FA01E227FF27EE0FFF1FE851FF4F6591FB
:102320007491852F992786279727FC01E327FF279C
:10233000EE0FFF1FE851FF4F45915491892F9927C8
:1023400084279527AD81BE818D939C93C30163E063
:1023500070E00E948D13660F771F640D751D600F6E
:10236000711FFB013897208331963083B3E06B0EE9
:10237000711CE3E0CE0ED11CFCE06F16710409F075
:102380005ACFFECED5018C9181113BC02E3731053D
:1023900059F5F701808191819801285B3D4F6901D2
:1023A0000C9750F0D9018D919C91883B904F21F46E
:1023B0002A9AC8010E946D0781E0F40180838FEFA3
:1023C0009FEFD6018D939C93F70111821082F80143
:1023D000EA5BFD4F11821082AB81BC811D921D9280
:1023E0001D921C921397CCCE2F37310519F4F401AE
:1023F0001082C6CE2B31310521F481E0D5018C93BA
:10240000BFCE4423A1F0F701808191818034F2E0B6
:102410009F0758F4AC014F5F5F4FD7014D935C931A
:10242000F801E80FF91F208302C0F4011082D501E2
:102430001C92A6CE50E83527411151CF60CF813094
:102440009105C1F720584BCF51E042CF2B960FB6E4
:10245000F894DEBF0FBECDBFDF91CF911F910F91DA
:10246000FF90EF90DF90CF90BF90AF909F908F90B4
:102470007F906F905F904F903F902F900895909332
:10248000A3068093A20650938B0640938A0670930E
:10249000A6066093A5060895EF92FF920F931F93EF
:1024A000CF93DF93EC018C017C018CEBE81A8DEF6C
:1024B000F80AF7018081918198012C1B3D0B2817A8
:1024C000390758F4F80181918F0160918A06709163
:1024D0008B0690E00E946C14ECCFDF91CF911F919E
:1024E0000F91FF90EF9008954F925F926F927F92BD
:1024F0008F929F92AF92BF92EF92FF920F931F9392
:10250000CF93DF93EC018B017A01E091A506F09166
:10251000A6068189811145C00E941E149091000178
:10252000891798F4A701B801CE01DF91CF911F91CF
:102530000F91FF90EF90BF90AF909F908F907F9002
:102540006F905F904F900C94AD0D8FB7F894809082
:10255000860690908706A0908806B09089068FBF67
:102560002091010130910201409103015091040139
:10257000AAE0B0E00E946E132FB7F8944090860650
:102580005090870660908806709089062FBF481883
:1025900059086A087B08461657066806790664F3E8
:1025A000B4CFE091A506F091A6068189882309F4AD
:1025B000ACCF8091A2069091A3060E948710E09173
:1025C000A506F091A606E453FF4F80819181892BE7
:1025D00041F311821082DF91CF911F910F91FF90F3
:1025E000EF90BF90AF909F908F907F906F905F9093
:1025F0004F9008954091AC065091AD0666E171E0B0
:102600008091A2069091A3060E9474121092A706D0
:102610001092AD061092AC06089581110C94FA1236
:102620008091A7068823D9F02FB7F8948091860669
:1026300090918706A0918806B09189062FBF40919E
:10264000A8065091A9066091AA067091AB06841B5A
:10265000950BA60BB70BC397A105B105FCF6089522
:102660009FB7F8944091860650918706609188063E
:10267000709189069FBF4093A8065093A906609366
:10268000AA067093AB0691E09093A7062091AC0642
:102690003091AD06A9014F5F5F4F5093AD06409357
:1026A000AC06F901EA5EFE4F80834433524010F0DD
:1026B0000C94FA1208950E9495018AE493E00E9416
:1026C000871080E00E941002882321F00E941A02E5
:1026D0000E94301380E00E940D13EFCF0E94C313BD
:1026E000A59F900DB49F900DA49F800D911D112466
:1026F0000895AA1BBB1B51E107C0AA1FBB1FA61749
:10270000B70710F0A61BB70B881F991F5A95A9F79A
:1027100080959095BC01CD01089597FB072E16F486
:10272000009407D077FD09D00E94791307FC05D0EB
:102730003EF4909581959F4F0895709561957F4FD8
:102740000895A1E21A2EAA1BBB1BFD010DC0AA1FF2
:10275000BB1FEE1FFF1FA217B307E407F50720F00A
:10276000A21BB30BE40BF50B661F771F881F991F85
:102770001A9469F760957095809590959B01AC01CE
:10278000BD01CF010895A29FB001B39FC001A39FD7
:10279000700D811D1124911DB29F700D811D11249A
:1027A000911D08958F929F92AF92BF92CF92DF9228
:1027B000EF92FF92CF93DF93EC01688179818A8158
:1027C0009B81611571058105910521F464E279ED24
:1027D0008BE597E02DE133EF41E050E00E94AC142F
:1027E00049015A019B01AC01A7EAB1E40E946E13B2
:1027F0006B017C01ACEEB4EFA50194010E94A7141B
:10280000DC01CB018C0D9D1DAE1DBF1DB7FF03C0AC
:102810000197A109B04888839983AA83BB839F77D6
:10282000DF91CF91FF90EF90DF90CF90BF90AF906E
:102830009F908F9008950E94D21308958EE091E0AA
:102840000E94D2130895A0E0B0E080930E0190930F
:102850000F01A0931001B09311010895CF93DF935E
:10286000EC012B8120FF33C026FF0AC02F7B2B8376
:102870008E819F8101969F838E838A8190E029C0FB
:1028800022FF0FC0E881F9818081992787FD90950B
:10289000009719F420622B831AC03196F983E883DC
:1028A0000EC0EA85FB85099597FF09C02B8101962B
:1028B00011F080E201C080E1822B8B8308C02E8161
:1028C0003F812F5F3F4F3F832E83992702C08FEFB9
:1028D0009FEFDF91CF9108950F931F93CF93DF93D5
:1028E000FB01238121FD03C08FEF9FEF28C022FF52
:1028F00016C046815781248135814217530744F41D
:10290000A081B1819D012F5F3F4F318320838C9344
:10291000268137812F5F3F4F3783268310C0EB011D
:10292000092F182F0084F185E02D0995892BE1F6F8
:102930008E819F8101969F838E83812F902FDF91BF
:10294000CF911F910F910895B7FF0C946E130E94C1
:102950006E13821B930B0895052E97FB1EF40094B3
:102960000E94C31457FD07D00E94A11307FC03D097
:102970004EF40C94C31450954095309521953F4FDB
:102980004F4F5F4F089590958095709561957F4F5B
:0A2990008F4F9F4F0895F894FFCF7A
:10299A00FFC8000000320000005E010000FE0100D6
:0229AA0000002B
:00000001FF
